{
  "contractName": "Token",
  "abi": [
    {
      "inputs": [],
      "stateMutability": "nonpayable",
      "type": "constructor"
    },
    {
      "anonymous": false,
      "inputs": [
        {
          "indexed": true,
          "internalType": "address",
          "name": "owner",
          "type": "address"
        },
        {
          "indexed": true,
          "internalType": "address",
          "name": "spender",
          "type": "address"
        },
        {
          "indexed": false,
          "internalType": "uint256",
          "name": "value",
          "type": "uint256"
        }
      ],
      "name": "Approval",
      "type": "event"
    },
    {
      "anonymous": false,
      "inputs": [
        {
          "indexed": true,
          "internalType": "address",
          "name": "previousOwner",
          "type": "address"
        },
        {
          "indexed": true,
          "internalType": "address",
          "name": "newOwner",
          "type": "address"
        }
      ],
      "name": "OwnershipTransferred",
      "type": "event"
    },
    {
      "anonymous": false,
      "inputs": [
        {
          "indexed": true,
          "internalType": "address",
          "name": "from",
          "type": "address"
        },
        {
          "indexed": true,
          "internalType": "address",
          "name": "to",
          "type": "address"
        },
        {
          "indexed": false,
          "internalType": "uint256",
          "name": "value",
          "type": "uint256"
        }
      ],
      "name": "Transfer",
      "type": "event"
    },
    {
      "inputs": [
        {
          "internalType": "address",
          "name": "owner",
          "type": "address"
        },
        {
          "internalType": "address",
          "name": "spender",
          "type": "address"
        }
      ],
      "name": "allowance",
      "outputs": [
        {
          "internalType": "uint256",
          "name": "",
          "type": "uint256"
        }
      ],
      "stateMutability": "view",
      "type": "function",
      "constant": true
    },
    {
      "inputs": [
        {
          "internalType": "address",
          "name": "spender",
          "type": "address"
        },
        {
          "internalType": "uint256",
          "name": "amount",
          "type": "uint256"
        }
      ],
      "name": "approve",
      "outputs": [
        {
          "internalType": "bool",
          "name": "",
          "type": "bool"
        }
      ],
      "stateMutability": "nonpayable",
      "type": "function"
    },
    {
      "inputs": [
        {
          "internalType": "address",
          "name": "account",
          "type": "address"
        }
      ],
      "name": "balanceOf",
      "outputs": [
        {
          "internalType": "uint256",
          "name": "",
          "type": "uint256"
        }
      ],
      "stateMutability": "view",
      "type": "function",
      "constant": true
    },
    {
      "inputs": [
        {
          "internalType": "uint256",
          "name": "amount",
          "type": "uint256"
        }
      ],
      "name": "burn",
      "outputs": [
        {
          "internalType": "bool",
          "name": "",
          "type": "bool"
        }
      ],
      "stateMutability": "nonpayable",
      "type": "function"
    },
    {
      "inputs": [],
      "name": "decimals",
      "outputs": [
        {
          "internalType": "uint8",
          "name": "",
          "type": "uint8"
        }
      ],
      "stateMutability": "view",
      "type": "function",
      "constant": true
    },
    {
      "inputs": [],
      "name": "getOwner",
      "outputs": [
        {
          "internalType": "address",
          "name": "",
          "type": "address"
        }
      ],
      "stateMutability": "view",
      "type": "function",
      "constant": true
    },
    {
      "inputs": [
        {
          "internalType": "uint256",
          "name": "amount",
          "type": "uint256"
        }
      ],
      "name": "mint",
      "outputs": [
        {
          "internalType": "bool",
          "name": "",
          "type": "bool"
        }
      ],
      "stateMutability": "nonpayable",
      "type": "function"
    },
    {
      "inputs": [],
      "name": "mintable",
      "outputs": [
        {
          "internalType": "bool",
          "name": "",
          "type": "bool"
        }
      ],
      "stateMutability": "view",
      "type": "function",
      "constant": true
    },
    {
      "inputs": [],
      "name": "name",
      "outputs": [
        {
          "internalType": "string",
          "name": "",
          "type": "string"
        }
      ],
      "stateMutability": "view",
      "type": "function",
      "constant": true
    },
    {
      "inputs": [],
      "name": "owner",
      "outputs": [
        {
          "internalType": "address",
          "name": "",
          "type": "address"
        }
      ],
      "stateMutability": "view",
      "type": "function",
      "constant": true
    },
    {
      "inputs": [],
      "name": "renounceOwnership",
      "outputs": [],
      "stateMutability": "nonpayable",
      "type": "function"
    },
    {
      "inputs": [],
      "name": "symbol",
      "outputs": [
        {
          "internalType": "string",
          "name": "",
          "type": "string"
        }
      ],
      "stateMutability": "view",
      "type": "function",
      "constant": true
    },
    {
      "inputs": [],
      "name": "totalSupply",
      "outputs": [
        {
          "internalType": "uint256",
          "name": "",
          "type": "uint256"
        }
      ],
      "stateMutability": "view",
      "type": "function",
      "constant": true
    },
    {
      "inputs": [
        {
          "internalType": "address",
          "name": "recipient",
          "type": "address"
        },
        {
          "internalType": "uint256",
          "name": "amount",
          "type": "uint256"
        }
      ],
      "name": "transfer",
      "outputs": [
        {
          "internalType": "bool",
          "name": "",
          "type": "bool"
        }
      ],
      "stateMutability": "nonpayable",
      "type": "function"
    },
    {
      "inputs": [
        {
          "internalType": "address",
          "name": "sender",
          "type": "address"
        },
        {
          "internalType": "address",
          "name": "recipient",
          "type": "address"
        },
        {
          "internalType": "uint256",
          "name": "amount",
          "type": "uint256"
        }
      ],
      "name": "transferFrom",
      "outputs": [
        {
          "internalType": "bool",
          "name": "",
          "type": "bool"
        }
      ],
      "stateMutability": "nonpayable",
      "type": "function"
    },
    {
      "inputs": [
        {
          "internalType": "address",
          "name": "newOwner",
          "type": "address"
        }
      ],
      "name": "transferOwnership",
      "outputs": [],
      "stateMutability": "nonpayable",
      "type": "function"
    }
  ],
  "bytecode": "0x60806040523480156200001157600080fd5b506200003262000026620000bc60201b60201c565b620000c460201b60201c565b620000b66040518060400160405280601b81526020017f496e636f676e69746f20446576656c6f706572277320546f6b656e00000000008152506040518060400160405280600381526020017f49445400000000000000000000000000000000000000000000000000000000008152506003620186a060016200018860201b60201c565b6200085c565b600033905090565b60008060009054906101000a900473ffffffffffffffffffffffffffffffffffffffff169050816000806101000a81548173ffffffffffffffffffffffffffffffffffffffff021916908373ffffffffffffffffffffffffffffffffffffffff1602179055508173ffffffffffffffffffffffffffffffffffffffff168173ffffffffffffffffffffffffffffffffffffffff167f8be0079c531659141344cd1fd0a4f28419497f9722a3daafe3b4186f6b6457e060405160405180910390a35050565b8460049080519060200190620001a0929190620003ed565b508360059080519060200190620001b9929190620003ed565b5082600660006101000a81548160ff021916908360ff16021790555080600660016101000a81548160ff021916908315150217905550600083600a62000200919062000637565b836200020d919062000688565b90506200023062000223620000bc60201b60201c565b826200023860201b60201c565b505050505050565b600073ffffffffffffffffffffffffffffffffffffffff168273ffffffffffffffffffffffffffffffffffffffff161415620002ab576040517f08c379a0000000000000000000000000000000000000000000000000000000008152600401620002a2906200074a565b60405180910390fd5b620002c781600354620003d560201b620009491790919060201c565b6003819055506200032681600160008573ffffffffffffffffffffffffffffffffffffffff1673ffffffffffffffffffffffffffffffffffffffff16815260200190815260200160002054620003d560201b620009491790919060201c565b600160008473ffffffffffffffffffffffffffffffffffffffff1673ffffffffffffffffffffffffffffffffffffffff168152602001908152602001600020819055508173ffffffffffffffffffffffffffffffffffffffff16600073ffffffffffffffffffffffffffffffffffffffff167fddf252ad1be2c89b69c2b068fc378daa952ba7f163c4a11628f55a4df523b3ef83604051620003c991906200077d565b60405180910390a35050565b60008183620003e591906200079a565b905092915050565b828054620003fb9062000826565b90600052602060002090601f0160209004810192826200041f57600085556200046b565b82601f106200043a57805160ff19168380011785556200046b565b828001600101855582156200046b579182015b828111156200046a5782518255916020019190600101906200044d565b5b5090506200047a91906200047e565b5090565b5b80821115620004995760008160009055506001016200047f565b5090565b7f4e487b7100000000000000000000000000000000000000000000000000000000600052601160045260246000fd5b60008160011c9050919050565b6000808291508390505b60018511156200052b578086048111156200050357620005026200049d565b5b6001851615620005135780820291505b80810290506200052385620004cc565b9450620004e3565b94509492505050565b60008262000546576001905062000619565b8162000556576000905062000619565b81600181146200056f57600281146200057a57620005b0565b600191505062000619565b60ff8411156200058f576200058e6200049d565b5b8360020a915084821115620005a957620005a86200049d565b5b5062000619565b5060208310610133831016604e8410600b8410161715620005ea5782820a905083811115620005e457620005e36200049d565b5b62000619565b620005f98484846001620004d9565b925090508184048111156200061357620006126200049d565b5b81810290505b9392505050565b6000819050919050565b600060ff82169050919050565b6000620006448262000620565b915062000651836200062a565b9250620006807fffffffffffffffffffffffffffffffffffffffffffffffffffffffffffffffff848462000534565b905092915050565b6000620006958262000620565b9150620006a28362000620565b9250817fffffffffffffffffffffffffffffffffffffffffffffffffffffffffffffffff0483118215151615620006de57620006dd6200049d565b5b828202905092915050565b600082825260208201905092915050565b7f42455032303a206d696e7420746f20746865207a65726f206164647265737300600082015250565b600062000732601f83620006e9565b91506200073f82620006fa565b602082019050919050565b60006020820190508181036000830152620007658162000723565b9050919050565b620007778162000620565b82525050565b60006020820190506200079460008301846200076c565b92915050565b6000620007a78262000620565b9150620007b48362000620565b9250827fffffffffffffffffffffffffffffffffffffffffffffffffffffffffffffffff03821115620007ec57620007eb6200049d565b5b828201905092915050565b7f4e487b7100000000000000000000000000000000000000000000000000000000600052602260045260246000fd5b600060028204905060018216806200083f57607f821691505b60208210811415620008565762000855620007f7565b5b50919050565b611bcf806200086c6000396000f3fe608060405234801561001057600080fd5b50600436106101005760003560e01c8063715018a611610097578063a0712d6811610066578063a0712d68146102a1578063a9059cbb146102d1578063dd62ed3e14610301578063f2fde38b1461033157610100565b8063715018a61461023d578063893d20e8146102475780638da5cb5b1461026557806395d89b411461028357610100565b8063313ce567116100d3578063313ce567146101a157806342966c68146101bf5780634bf365df146101ef57806370a082311461020d57610100565b806306fdde0314610105578063095ea7b31461012357806318160ddd1461015357806323b872dd14610171575b600080fd5b61010d61034d565b60405161011a91906112b6565b60405180910390f35b61013d60048036038101906101389190611371565b6103df565b60405161014a91906113cc565b60405180910390f35b61015b6103fd565b60405161016891906113f6565b60405180910390f35b61018b60048036038101906101869190611411565b610407565b60405161019891906113cc565b60405180910390f35b6101a96104e0565b6040516101b69190611480565b60405180910390f35b6101d960048036038101906101d4919061149b565b6104f7565b6040516101e691906113cc565b60405180910390f35b6101f7610513565b60405161020491906113cc565b60405180910390f35b610227600480360381019061022291906114c8565b61052a565b60405161023491906113f6565b60405180910390f35b610245610573565b005b61024f6105fb565b60405161025c9190611504565b60405180910390f35b61026d61060a565b60405161027a9190611504565b60405180910390f35b61028b610633565b60405161029891906112b6565b60405180910390f35b6102bb60048036038101906102b6919061149b565b6106c5565b6040516102c891906113cc565b60405180910390f35b6102eb60048036038101906102e69190611371565b6107ac565b6040516102f891906113cc565b60405180910390f35b61031b6004803603810190610316919061151f565b6107ca565b60405161032891906113f6565b60405180910390f35b61034b600480360381019061034691906114c8565b610851565b005b60606004805461035c9061158e565b80601f01602080910402602001604051908101604052809291908181526020018280546103889061158e565b80156103d55780601f106103aa576101008083540402835291602001916103d5565b820191906000526020600020905b8154815290600101906020018083116103b857829003601f168201915b5050505050905090565b60006103f36103ec61095f565b8484610967565b6001905092915050565b6000600354905090565b6000610414848484610b32565b6104d58461042061095f565b6104d085604051806060016040528060288152602001611b2a60289139600260008b73ffffffffffffffffffffffffffffffffffffffff1673ffffffffffffffffffffffffffffffffffffffff168152602001908152602001600020600061048661095f565b73ffffffffffffffffffffffffffffffffffffffff1673ffffffffffffffffffffffffffffffffffffffff16815260200190815260200160002054610dc09092919063ffffffff16565b610967565b600190509392505050565b6000600660009054906101000a900460ff16905090565b600061050a61050461095f565b83610e15565b60019050919050565b6000600660019054906101000a900460ff16905090565b6000600160008373ffffffffffffffffffffffffffffffffffffffff1673ffffffffffffffffffffffffffffffffffffffff168152602001908152602001600020549050919050565b61057b61095f565b73ffffffffffffffffffffffffffffffffffffffff1661059961060a565b73ffffffffffffffffffffffffffffffffffffffff16146105ef576040517f08c379a00000000000000000000000000000000000000000000000000000000081526004016105e69061160c565b60405180910390fd5b6105f96000610fb9565b565b600061060561060a565b905090565b60008060009054906101000a900473ffffffffffffffffffffffffffffffffffffffff16905090565b6060600580546106429061158e565b80601f016020809104026020016040519081016040528092919081815260200182805461066e9061158e565b80156106bb5780601f10610690576101008083540402835291602001916106bb565b820191906000526020600020905b81548152906001019060200180831161069e57829003601f168201915b5050505050905090565b60006106cf61095f565b73ffffffffffffffffffffffffffffffffffffffff166106ed61060a565b73ffffffffffffffffffffffffffffffffffffffff1614610743576040517f08c379a000000000000000000000000000000000000000000000000000000000815260040161073a9061160c565b60405180910390fd5b600660019054906101000a900460ff16610792576040517f08c379a000000000000000000000000000000000000000000000000000000000815260040161078990611678565b60405180910390fd5b6107a361079d61095f565b8361107d565b60019050919050565b60006107c06107b961095f565b8484610b32565b6001905092915050565b6000600260008473ffffffffffffffffffffffffffffffffffffffff1673ffffffffffffffffffffffffffffffffffffffff16815260200190815260200160002060008373ffffffffffffffffffffffffffffffffffffffff1673ffffffffffffffffffffffffffffffffffffffff16815260200190815260200160002054905092915050565b61085961095f565b73ffffffffffffffffffffffffffffffffffffffff1661087761060a565b73ffffffffffffffffffffffffffffffffffffffff16146108cd576040517f08c379a00000000000000000000000000000000000000000000000000000000081526004016108c49061160c565b60405180910390fd5b600073ffffffffffffffffffffffffffffffffffffffff168173ffffffffffffffffffffffffffffffffffffffff16141561093d576040517f08c379a00000000000000000000000000000000000000000000000000000000081526004016109349061170a565b60405180910390fd5b61094681610fb9565b50565b600081836109579190611759565b905092915050565b600033905090565b600073ffffffffffffffffffffffffffffffffffffffff168373ffffffffffffffffffffffffffffffffffffffff1614156109d7576040517f08c379a00000000000000000000000000000000000000000000000000000000081526004016109ce90611821565b60405180910390fd5b600073ffffffffffffffffffffffffffffffffffffffff168273ffffffffffffffffffffffffffffffffffffffff161415610a47576040517f08c379a0000000000000000000000000000000000000000000000000000000008152600401610a3e906118b3565b60405180910390fd5b80600260008573ffffffffffffffffffffffffffffffffffffffff1673ffffffffffffffffffffffffffffffffffffffff16815260200190815260200160002060008473ffffffffffffffffffffffffffffffffffffffff1673ffffffffffffffffffffffffffffffffffffffff168152602001908152602001600020819055508173ffffffffffffffffffffffffffffffffffffffff168373ffffffffffffffffffffffffffffffffffffffff167f8c5be1e5ebec7d5bd14f71427d1e84f3dd0314c0f7b2291e5b200ac8c7c3b92583604051610b2591906113f6565b60405180910390a3505050565b600073ffffffffffffffffffffffffffffffffffffffff168373ffffffffffffffffffffffffffffffffffffffff161415610ba2576040517f08c379a0000000000000000000000000000000000000000000000000000000008152600401610b9990611945565b60405180910390fd5b600073ffffffffffffffffffffffffffffffffffffffff168273ffffffffffffffffffffffffffffffffffffffff161415610c12576040517f08c379a0000000000000000000000000000000000000000000000000000000008152600401610c09906119d7565b60405180910390fd5b610c7e81604051806060016040528060268152602001611b5260269139600160008773ffffffffffffffffffffffffffffffffffffffff1673ffffffffffffffffffffffffffffffffffffffff16815260200190815260200160002054610dc09092919063ffffffff16565b600160008573ffffffffffffffffffffffffffffffffffffffff1673ffffffffffffffffffffffffffffffffffffffff16815260200190815260200160002081905550610d1381600160008573ffffffffffffffffffffffffffffffffffffffff1673ffffffffffffffffffffffffffffffffffffffff1681526020019081526020016000205461094990919063ffffffff16565b600160008473ffffffffffffffffffffffffffffffffffffffff1673ffffffffffffffffffffffffffffffffffffffff168152602001908152602001600020819055508173ffffffffffffffffffffffffffffffffffffffff168373ffffffffffffffffffffffffffffffffffffffff167fddf252ad1be2c89b69c2b068fc378daa952ba7f163c4a11628f55a4df523b3ef83604051610db391906113f6565b60405180910390a3505050565b6000838311158290610e08576040517f08c379a0000000000000000000000000000000000000000000000000000000008152600401610dff91906112b6565b60405180910390fd5b5082840390509392505050565b600073ffffffffffffffffffffffffffffffffffffffff168273ffffffffffffffffffffffffffffffffffffffff161415610e85576040517f08c379a0000000000000000000000000000000000000000000000000000000008152600401610e7c90611a69565b60405180910390fd5b610ef181604051806060016040528060228152602001611b7860229139600160008673ffffffffffffffffffffffffffffffffffffffff1673ffffffffffffffffffffffffffffffffffffffff16815260200190815260200160002054610dc09092919063ffffffff16565b600160008473ffffffffffffffffffffffffffffffffffffffff1673ffffffffffffffffffffffffffffffffffffffff16815260200190815260200160002081905550610f498160035461120790919063ffffffff16565b600381905550600073ffffffffffffffffffffffffffffffffffffffff168273ffffffffffffffffffffffffffffffffffffffff167fddf252ad1be2c89b69c2b068fc378daa952ba7f163c4a11628f55a4df523b3ef83604051610fad91906113f6565b60405180910390a35050565b60008060009054906101000a900473ffffffffffffffffffffffffffffffffffffffff169050816000806101000a81548173ffffffffffffffffffffffffffffffffffffffff021916908373ffffffffffffffffffffffffffffffffffffffff1602179055508173ffffffffffffffffffffffffffffffffffffffff168173ffffffffffffffffffffffffffffffffffffffff167f8be0079c531659141344cd1fd0a4f28419497f9722a3daafe3b4186f6b6457e060405160405180910390a35050565b600073ffffffffffffffffffffffffffffffffffffffff168273ffffffffffffffffffffffffffffffffffffffff1614156110ed576040517f08c379a00000000000000000000000000000000000000000000000000000000081526004016110e490611ad5565b60405180910390fd5b6111028160035461094990919063ffffffff16565b60038190555061115a81600160008573ffffffffffffffffffffffffffffffffffffffff1673ffffffffffffffffffffffffffffffffffffffff1681526020019081526020016000205461094990919063ffffffff16565b600160008473ffffffffffffffffffffffffffffffffffffffff1673ffffffffffffffffffffffffffffffffffffffff168152602001908152602001600020819055508173ffffffffffffffffffffffffffffffffffffffff16600073ffffffffffffffffffffffffffffffffffffffff167fddf252ad1be2c89b69c2b068fc378daa952ba7f163c4a11628f55a4df523b3ef836040516111fb91906113f6565b60405180910390a35050565b600081836112159190611af5565b905092915050565b600081519050919050565b600082825260208201905092915050565b60005b8381101561125757808201518184015260208101905061123c565b83811115611266576000848401525b50505050565b6000601f19601f8301169050919050565b60006112888261121d565b6112928185611228565b93506112a2818560208601611239565b6112ab8161126c565b840191505092915050565b600060208201905081810360008301526112d0818461127d565b905092915050565b600080fd5b600073ffffffffffffffffffffffffffffffffffffffff82169050919050565b6000611308826112dd565b9050919050565b611318816112fd565b811461132357600080fd5b50565b6000813590506113358161130f565b92915050565b6000819050919050565b61134e8161133b565b811461135957600080fd5b50565b60008135905061136b81611345565b92915050565b60008060408385031215611388576113876112d8565b5b600061139685828601611326565b92505060206113a78582860161135c565b9150509250929050565b60008115159050919050565b6113c6816113b1565b82525050565b60006020820190506113e160008301846113bd565b92915050565b6113f08161133b565b82525050565b600060208201905061140b60008301846113e7565b92915050565b60008060006060848603121561142a576114296112d8565b5b600061143886828701611326565b935050602061144986828701611326565b925050604061145a8682870161135c565b9150509250925092565b600060ff82169050919050565b61147a81611464565b82525050565b60006020820190506114956000830184611471565b92915050565b6000602082840312156114b1576114b06112d8565b5b60006114bf8482850161135c565b91505092915050565b6000602082840312156114de576114dd6112d8565b5b60006114ec84828501611326565b91505092915050565b6114fe816112fd565b82525050565b600060208201905061151960008301846114f5565b92915050565b60008060408385031215611536576115356112d8565b5b600061154485828601611326565b925050602061155585828601611326565b9150509250929050565b7f4e487b7100000000000000000000000000000000000000000000000000000000600052602260045260246000fd5b600060028204905060018216806115a657607f821691505b602082108114156115ba576115b961155f565b5b50919050565b7f4f776e61626c653a2063616c6c6572206973206e6f7420746865206f776e6572600082015250565b60006115f6602083611228565b9150611601826115c0565b602082019050919050565b60006020820190508181036000830152611625816115e9565b9050919050565b7f7468697320746f6b656e206973206e6f74206d696e7461626c65000000000000600082015250565b6000611662601a83611228565b915061166d8261162c565b602082019050919050565b6000602082019050818103600083015261169181611655565b9050919050565b7f4f776e61626c653a206e6577206f776e657220697320746865207a65726f206160008201527f6464726573730000000000000000000000000000000000000000000000000000602082015250565b60006116f4602683611228565b91506116ff82611698565b604082019050919050565b60006020820190508181036000830152611723816116e7565b9050919050565b7f4e487b7100000000000000000000000000000000000000000000000000000000600052601160045260246000fd5b60006117648261133b565b915061176f8361133b565b9250827fffffffffffffffffffffffffffffffffffffffffffffffffffffffffffffffff038211156117a4576117a361172a565b5b828201905092915050565b7f42455032303a20617070726f76652066726f6d20746865207a65726f2061646460008201527f7265737300000000000000000000000000000000000000000000000000000000602082015250565b600061180b602483611228565b9150611816826117af565b604082019050919050565b6000602082019050818103600083015261183a816117fe565b9050919050565b7f42455032303a20617070726f766520746f20746865207a65726f20616464726560008201527f7373000000000000000000000000000000000000000000000000000000000000602082015250565b600061189d602283611228565b91506118a882611841565b604082019050919050565b600060208201905081810360008301526118cc81611890565b9050919050565b7f42455032303a207472616e736665722066726f6d20746865207a65726f20616460008201527f6472657373000000000000000000000000000000000000000000000000000000602082015250565b600061192f602583611228565b915061193a826118d3565b604082019050919050565b6000602082019050818103600083015261195e81611922565b9050919050565b7f42455032303a207472616e7366657220746f20746865207a65726f206164647260008201527f6573730000000000000000000000000000000000000000000000000000000000602082015250565b60006119c1602383611228565b91506119cc82611965565b604082019050919050565b600060208201905081810360008301526119f0816119b4565b9050919050565b7f42455032303a206275726e2066726f6d20746865207a65726f2061646472657360008201527f7300000000000000000000000000000000000000000000000000000000000000602082015250565b6000611a53602183611228565b9150611a5e826119f7565b604082019050919050565b60006020820190508181036000830152611a8281611a46565b9050919050565b7f42455032303a206d696e7420746f20746865207a65726f206164647265737300600082015250565b6000611abf601f83611228565b9150611aca82611a89565b602082019050919050565b60006020820190508181036000830152611aee81611ab2565b9050919050565b6000611b008261133b565b9150611b0b8361133b565b925082821015611b1e57611b1d61172a565b5b82820390509291505056fe42455032303a207472616e7366657220616d6f756e74206578636565647320616c6c6f77616e636542455032303a207472616e7366657220616d6f756e7420657863656564732062616c616e636542455032303a206275726e20616d6f756e7420657863656564732062616c616e6365a264697066735822122006bcdec266272da853802ee22baf39587cd61879dbbc35f4b4b08928ef720ff164736f6c634300080a0033",
  "immutableReferences": {},
  "source": "// SPDX-License-Identifier: MIT\npragma solidity ^0.8.9;\n\nimport \"./BEP20.sol\";\n\ncontract Token is BEP20 {\n    constructor() {\n        _initialize(\"Incognito Developer's Token\", \"IDT\", 3, 100000, true);\n    }\n}\n",
  "sourcePath": "/home/dhruv/Desktop/projects/dApps/IncognitoDev_DAO-main/contracts/Token.sol",
  "compiler": {
    "name": "solc",
    "version": "0.8.10+commit.fc410830.Emscripten.clang"
  },
  "schemaVersion": "3.4.5",
  "updatedAt": "2022-03-08T01:49:01.383Z",
  "networkType": "ethereum",
  "devdoc": {
    "kind": "dev",
    "methods": {
      "allowance(address,address)": {
        "details": "See {BEP20-allowance}."
      },
      "approve(address,uint256)": {
        "details": "See {BEP20-approve}. Requirements: - `spender` cannot be the zero address."
      },
      "balanceOf(address)": {
        "details": "See {BEP20-balanceOf}."
      },
      "burn(uint256)": {
        "details": "Burn `amount` tokens and decreasing the total supply."
      },
      "decimals()": {
        "details": "Returns the token decimals."
      },
      "getOwner()": {
        "details": "Returns the bep token owner."
      },
      "mint(uint256)": {
        "details": "Creates `amount` tokens and assigns them to `msg.sender`, increasing the total supply. Requirements - `msg.sender` must be the token owner - `_mintable` must be true"
      },
      "mintable()": {
        "details": "Returns if the token is mintable or not"
      },
      "name()": {
        "details": "Returns the token name."
      },
      "owner()": {
        "details": "Returns the address of the current owner."
      },
      "renounceOwnership()": {
        "details": "Leaves the contract without owner. It will not be possible to call `onlyOwner` functions anymore. Can only be called by the current owner. NOTE: Renouncing ownership will leave the contract without an owner, thereby removing any functionality that is only available to the owner."
      },
      "symbol()": {
        "details": "Returns the token symbol."
      },
      "totalSupply()": {
        "details": "See {BEP20-totalSupply}."
      },
      "transfer(address,uint256)": {
        "details": "See {BEP20-transfer}. Requirements: - `recipient` cannot be the zero address. - the caller must have a balance of at least `amount`."
      },
      "transferFrom(address,address,uint256)": {
        "details": "See {BEP20-transferFrom}. Emits an {Approval} event indicating the updated allowance. This is not required by the EIP. See the note at the beginning of {BEP20}; Requirements: - `sender` and `recipient` cannot be the zero address. - `sender` must have a balance of at least `amount`. - the caller must have allowance for `sender`'s tokens of at least `amount`."
      },
      "transferOwnership(address)": {
        "details": "Transfers ownership of the contract to a new account (`newOwner`). Can only be called by the current owner."
      }
    },
    "version": 1
  },
  "userdoc": {
    "kind": "user",
    "methods": {},
    "version": 1
  }
}