{
  "contractName": "TokenTimelock",
  "abi": [
    {
      "inputs": [
        {
          "internalType": "contract IBEP20",
          "name": "token_",
          "type": "address"
        },
        {
          "internalType": "address",
          "name": "beneficiary_",
          "type": "address"
        },
        {
          "internalType": "uint256",
          "name": "releaseTime_",
          "type": "uint256"
        }
      ],
      "stateMutability": "nonpayable",
      "type": "constructor"
    },
    {
      "inputs": [],
      "name": "_beneficiary",
      "outputs": [
        {
          "internalType": "address",
          "name": "",
          "type": "address"
        }
      ],
      "stateMutability": "view",
      "type": "function"
    },
    {
      "inputs": [],
      "name": "_releaseTime",
      "outputs": [
        {
          "internalType": "uint256",
          "name": "",
          "type": "uint256"
        }
      ],
      "stateMutability": "view",
      "type": "function"
    },
    {
      "inputs": [],
      "name": "token",
      "outputs": [
        {
          "internalType": "contract IBEP20",
          "name": "",
          "type": "address"
        }
      ],
      "stateMutability": "view",
      "type": "function"
    },
    {
      "inputs": [],
      "name": "beneficiary",
      "outputs": [
        {
          "internalType": "address",
          "name": "",
          "type": "address"
        }
      ],
      "stateMutability": "view",
      "type": "function"
    },
    {
      "inputs": [],
      "name": "releaseTime",
      "outputs": [
        {
          "internalType": "uint256",
          "name": "",
          "type": "uint256"
        }
      ],
      "stateMutability": "view",
      "type": "function"
    },
    {
      "inputs": [],
      "name": "release",
      "outputs": [],
      "stateMutability": "nonpayable",
      "type": "function"
    }
  ],
  "bytecode": "0x60806040523480156200001157600080fd5b5060405162000fb638038062000fb6833981810160405281019062000037919062000200565b600160008190555042811162000084576040517f08c379a00000000000000000000000000000000000000000000000000000000081526004016200007b90620002e3565b60405180910390fd5b82600160006101000a81548173ffffffffffffffffffffffffffffffffffffffff021916908373ffffffffffffffffffffffffffffffffffffffff16021790555081600260006101000a81548173ffffffffffffffffffffffffffffffffffffffff021916908373ffffffffffffffffffffffffffffffffffffffff1602179055508060038190555050505062000305565b600080fd5b600073ffffffffffffffffffffffffffffffffffffffff82169050919050565b600062000148826200011b565b9050919050565b60006200015c826200013b565b9050919050565b6200016e816200014f565b81146200017a57600080fd5b50565b6000815190506200018e8162000163565b92915050565b6200019f816200013b565b8114620001ab57600080fd5b50565b600081519050620001bf8162000194565b92915050565b6000819050919050565b620001da81620001c5565b8114620001e657600080fd5b50565b600081519050620001fa81620001cf565b92915050565b6000806000606084860312156200021c576200021b62000116565b5b60006200022c868287016200017d565b93505060206200023f86828701620001ae565b92505060406200025286828701620001e9565b9150509250925092565b600082825260208201905092915050565b7f546f6b656e54696d656c6f636b3a2072656c656173652074696d65206973206260008201527f65666f72652063757272656e742074696d650000000000000000000000000000602082015250565b6000620002cb6032836200025c565b9150620002d8826200026d565b604082019050919050565b60006020820190508181036000830152620002fe81620002bc565b9050919050565b610ca180620003156000396000f3fe608060405234801561001057600080fd5b50600436106100625760003560e01c80632208ee1d1461006757806338af3eed14610085578063828cedb7146100a357806386d1a69f146100c1578063b91d4001146100cb578063fc0c546a146100e9575b600080fd5b61006f610107565b60405161007c9190610634565b60405180910390f35b61008d61010d565b60405161009a9190610690565b60405180910390f35b6100ab610137565b6040516100b89190610690565b60405180910390f35b6100c961015d565b005b6100d3610301565b6040516100e09190610634565b60405180910390f35b6100f161030b565b6040516100fe919061070a565b60405180910390f35b60035481565b6000600260009054906101000a900473ffffffffffffffffffffffffffffffffffffffff16905090565b600260009054906101000a900473ffffffffffffffffffffffffffffffffffffffff1681565b600260005414156101a3576040517f08c379a000000000000000000000000000000000000000000000000000000000815260040161019a90610782565b60405180910390fd5b60026000819055506101b3610301565b4210156101f5576040517f08c379a00000000000000000000000000000000000000000000000000000000081526004016101ec90610814565b60405180910390fd5b60006101ff61030b565b73ffffffffffffffffffffffffffffffffffffffff166370a08231306040518263ffffffff1660e01b81526004016102379190610690565b602060405180830381865afa158015610254573d6000803e3d6000fd5b505050506040513d601f19601f820116820180604052508101906102789190610865565b9050600081116102bd576040517f08c379a00000000000000000000000000000000000000000000000000000000081526004016102b490610904565b60405180910390fd5b6102f66102c861010d565b826102d161030b565b73ffffffffffffffffffffffffffffffffffffffff166103359092919063ffffffff16565b506001600081905550565b6000600354905090565b6000600160009054906101000a900473ffffffffffffffffffffffffffffffffffffffff16905090565b6103b68363a9059cbb60e01b8484604051602401610354929190610924565b604051602081830303815290604052907bffffffffffffffffffffffffffffffffffffffffffffffffffffffff19166020820180517bffffffffffffffffffffffffffffffffffffffffffffffffffffffff83818316178352505050506103bb565b505050565b600061040082604051806060016040528060218152602001610c4b602191398573ffffffffffffffffffffffffffffffffffffffff166104659092919063ffffffff16565b905060008151111561046057808060200190518101906104209190610985565b61045f576040517f08c379a000000000000000000000000000000000000000000000000000000000815260040161045690610a24565b60405180910390fd5b5b505050565b6060610474848460008561047d565b90509392505050565b6060824710156104c2576040517f08c379a00000000000000000000000000000000000000000000000000000000081526004016104b990610ab6565b60405180910390fd5b6104cb85610591565b61050a576040517f08c379a000000000000000000000000000000000000000000000000000000000815260040161050190610b22565b60405180910390fd5b6000808673ffffffffffffffffffffffffffffffffffffffff1685876040516105339190610bbc565b60006040518083038185875af1925050503d8060008114610570576040519150601f19603f3d011682016040523d82523d6000602084013e610575565b606091505b50915091506105858282866105b4565b92505050949350505050565b6000808273ffffffffffffffffffffffffffffffffffffffff163b119050919050565b606083156105c457829050610614565b6000835111156105d75782518084602001fd5b816040517f08c379a000000000000000000000000000000000000000000000000000000000815260040161060b9190610c28565b60405180910390fd5b9392505050565b6000819050919050565b61062e8161061b565b82525050565b60006020820190506106496000830184610625565b92915050565b600073ffffffffffffffffffffffffffffffffffffffff82169050919050565b600061067a8261064f565b9050919050565b61068a8161066f565b82525050565b60006020820190506106a56000830184610681565b92915050565b6000819050919050565b60006106d06106cb6106c68461064f565b6106ab565b61064f565b9050919050565b60006106e2826106b5565b9050919050565b60006106f4826106d7565b9050919050565b610704816106e9565b82525050565b600060208201905061071f60008301846106fb565b92915050565b600082825260208201905092915050565b7f5265656e7472616e637947756172643a207265656e7472616e742063616c6c00600082015250565b600061076c601f83610725565b915061077782610736565b602082019050919050565b6000602082019050818103600083015261079b8161075f565b9050919050565b7f546f6b656e54696d656c6f636b3a2063757272656e742074696d65206973206260008201527f65666f72652072656c656173652074696d650000000000000000000000000000602082015250565b60006107fe603283610725565b9150610809826107a2565b604082019050919050565b6000602082019050818103600083015261082d816107f1565b9050919050565b600080fd5b6108428161061b565b811461084d57600080fd5b50565b60008151905061085f81610839565b92915050565b60006020828403121561087b5761087a610834565b5b600061088984828501610850565b91505092915050565b7f546f6b656e54696d656c6f636b3a206e6f20746f6b656e7320746f2072656c6560008201527f6173650000000000000000000000000000000000000000000000000000000000602082015250565b60006108ee602383610725565b91506108f982610892565b604082019050919050565b6000602082019050818103600083015261091d816108e1565b9050919050565b60006040820190506109396000830185610681565b6109466020830184610625565b9392505050565b60008115159050919050565b6109628161094d565b811461096d57600080fd5b50565b60008151905061097f81610959565b92915050565b60006020828403121561099b5761099a610834565b5b60006109a984828501610970565b91505092915050565b7f536166654942455032303a20494245503230206f7065726174696f6e2064696460008201527f206e6f7420737563636565640000000000000000000000000000000000000000602082015250565b6000610a0e602c83610725565b9150610a19826109b2565b604082019050919050565b60006020820190508181036000830152610a3d81610a01565b9050919050565b7f416464726573733a20696e73756666696369656e742062616c616e636520666f60008201527f722063616c6c0000000000000000000000000000000000000000000000000000602082015250565b6000610aa0602683610725565b9150610aab82610a44565b604082019050919050565b60006020820190508181036000830152610acf81610a93565b9050919050565b7f416464726573733a2063616c6c20746f206e6f6e2d636f6e7472616374000000600082015250565b6000610b0c601d83610725565b9150610b1782610ad6565b602082019050919050565b60006020820190508181036000830152610b3b81610aff565b9050919050565b600081519050919050565b600081905092915050565b60005b83811015610b76578082015181840152602081019050610b5b565b83811115610b85576000848401525b50505050565b6000610b9682610b42565b610ba08185610b4d565b9350610bb0818560208601610b58565b80840191505092915050565b6000610bc88284610b8b565b915081905092915050565b600081519050919050565b6000601f19601f8301169050919050565b6000610bfa82610bd3565b610c048185610725565b9350610c14818560208601610b58565b610c1d81610bde565b840191505092915050565b60006020820190508181036000830152610c428184610bef565b90509291505056fe536166654942455032303a206c6f772d6c6576656c2063616c6c206661696c6564a264697066735822122020575598536698faf8f0f87a9991c69cf08e3ce4c3636d5b7a1bc9947291a64264736f6c634300080a0033",
  "immutableReferences": {},
  "source": "// SPDX-License-Identifier: MIT\n// OpenZeppelin Contracts (last updated v4.5.0)\n\npragma solidity ^0.8.0;\n\nimport \"./SafeBEP20.sol\";\nimport \"../../node_modules/@openzeppelin/contracts/security/ReentrancyGuard.sol\";\n\n/**\n * @dev A token holder contract that will allow a beneficiary to extract the\n * tokens after a given release time.\n *\n * Useful for simple vesting schedules like \"advisors get all of their tokens\n * after 1 year\".\n */\ncontract TokenTimelock is ReentrancyGuard {\n    using SafeBEP20 for IBEP20;\n\n    // Basic token contract being held\n    IBEP20 _token;\n\n    // beneficiary of tokens after they are released\n    address public _beneficiary;\n\n    // timestamp when token release is enabled\n    uint256 public _releaseTime;\n\n    /**\n     * @dev Deploys a timelock instance that is able to hold the token specified, and will only release it to\n     * `beneficiary_` when {release} is invoked after `releaseTime_`. The release time is specified as a Unix timestamp\n     * (in seconds).\n     */\n    constructor(\n        IBEP20 token_,\n        address beneficiary_,\n        uint256 releaseTime_\n    ) {\n        require(\n            releaseTime_ > block.timestamp,\n            \"TokenTimelock: release time is before current time\"\n        );\n        _token = IBEP20(token_);\n        _beneficiary = beneficiary_;\n        _releaseTime = releaseTime_;\n    }\n\n    /**\n     * @dev Returns the token being held.\n     */\n    function token() public view virtual returns (IBEP20) {\n        return _token;\n    }\n\n    /**\n     * @dev Returns the beneficiary that will receive the tokens.\n     */\n    function beneficiary() public view virtual returns (address) {\n        return _beneficiary;\n    }\n\n    /**\n     * @dev Returns the time when the tokens are released in seconds since Unix epoch (i.e. Unix timestamp).\n     */\n    function releaseTime() public view virtual returns (uint256) {\n        return _releaseTime;\n    }\n\n    /**\n     * @dev Transfers tokens held by the timelock to the beneficiary. Will only succeed if invoked after the release\n     * time.\n     */\n    function release() public virtual nonReentrant {\n        require(\n            block.timestamp >= releaseTime(),\n            \"TokenTimelock: current time is before release time\"\n        );\n\n        uint256 amount = token().balanceOf(address(this));\n        require(amount > 0, \"TokenTimelock: no tokens to release\");\n\n        token().safeTransfer(beneficiary(), amount);\n    }\n}\n",
  "sourcePath": "/home/dhruv/Desktop/projects/dApps/IncognitoDev_DAO-main/contracts/utils/TokenTimelock.sol",
  "compiler": {
    "name": "solc",
    "version": "0.8.10+commit.fc410830.Emscripten.clang"
  },
  "schemaVersion": "3.4.5",
  "updatedAt": "2022-03-08T04:42:14.446Z",
  "devdoc": {
    "details": "A token holder contract that will allow a beneficiary to extract the tokens after a given release time. Useful for simple vesting schedules like \"advisors get all of their tokens after 1 year\".",
    "kind": "dev",
    "methods": {
      "beneficiary()": {
        "details": "Returns the beneficiary that will receive the tokens."
      },
      "constructor": {
        "details": "Deploys a timelock instance that is able to hold the token specified, and will only release it to `beneficiary_` when {release} is invoked after `releaseTime_`. The release time is specified as a Unix timestamp (in seconds)."
      },
      "release()": {
        "details": "Transfers tokens held by the timelock to the beneficiary. Will only succeed if invoked after the release time."
      },
      "releaseTime()": {
        "details": "Returns the time when the tokens are released in seconds since Unix epoch (i.e. Unix timestamp)."
      },
      "token()": {
        "details": "Returns the token being held."
      }
    },
    "version": 1
  },
  "userdoc": {
    "kind": "user",
    "methods": {},
    "version": 1
  }
}